:100000000C945E000C9486000C9486000C94860080
:100010000C9486000C9486000C9486000C94860048
:100020000C9486000C9486000C9486000C94360B7D
:100030000C9486000C9486000C9486000C94860028
:100040000C945D110C9486000C94080E0C944B0ECD
:100050000C9486000C9486000C9486000C94860008
:100060000C9486000C94860000000007000201003A
:100070000003040600000000000000000102040864
:100080001020408001020408102001020408102002
:10009000040404040404040402020202020203032E
:1000A0000303030300000000250028002B000000CC
:1000B0000000240027002A00710A090F11241FBE26
:1000C000CFEFD8E0DEBFCDBF12E0A0E0B1E0EAE6BE
:1000D000F7E202C005900D92AC3BB107D9F726E0DC
:1000E000ACEBB2E001C01D92A539B207E1F710E018
:1000F000CEE5D0E004C02197FE010E949513CC35D7
:10010000D107C9F70E94200D0C94B3130C94000082
:10011000DC01FB0112968C911297808313968C91CF
:100120001397818314968C911497828315968C91E2
:100130001597838316968C911697848317968C91C6
:100140001797858318968C911897868319968C91AA
:10015000878388E090E00895FC01DB014C9150E03A
:1001600060E070E0428353836483758311968C91C1
:100170001197582B428353836483758312968C9115
:100180001297682B428353836483758313968C91F3
:100190001397782B428353836483758314964C9111
:1001A000149750E060E070E0468357836087718762
:1001B00015968C911597582B4683578360877187C6
:1001C00016968C911697682B4683578360877187A4
:1001D00017968C91782B468357836087718788E0C8
:1001E00090E0089586E091E0089584E191E008951B
:1001F000A0E0B0E0EEEFF0E00C944E13DC01FB0168
:10020000808190E013969C938E9312972181922B7C
:1002100013969C938E9312970281138124813581CA
:100220005B0186E0A80EB11C68017901C6E0CC0E26
:10023000D11CE11CF11CA5014E1B5F0B60E070E0BE
:100240004C155D056E057F0540F4E50149915E01A1
:10025000CE010297EC014883EECFEF01C00FD11F12
:100260001D82CF01059615969C938E931497EF01EE
:10027000C00FD11F4E815F8168857985065F1F4F52
:100280003F01600E711E6801012E000CEE08FF0890
:10029000C40ED51EE61EF71E43018E1A9F0AA12C1E
:1002A000B12C8C149D04AE04BF0440F4E3012991E9
:1002B0003E01CE010297EC012883EECF400F511F83
:1002C0009F01240F351FC9010197EC011882C80155
:1002D00001978E0F9F1F17969C938E931697E90197
:1002E00088809980AA80BB804C5F5F4F3F01640E7D
:1002F000751E8A01052E000C220B330B080D191DEB
:100300002A1D3B1D6301CE1ADF0AE12CF12CC01619
:10031000D106E206F30640F4E30169913E01CE0105
:100320000297EC016883EECFCA01880D991D8F01F9
:10033000080F191F980121503109E9011882BA01EB
:1003400061507109E60FF71F1996FC93EE93189709
:10035000F8012181428150E060E070E0BA01552748
:100360004427522B2081422B2381722B1A964D93C6
:100370005D936D937C931D970496CDB7DEB7EEE049
:100380000C946A1385E391E008958EE491E008955A
:10039000A0E0B0E0EEECF1E00C9452135C01EB0154
:1003A0008881F501828389819A81AB81BC81FB01BF
:1003B00035966C017D0125E0C20ED11CE11CF11CBB
:1003C0008F01061B170B20E030E00C151D052E05D4
:1003D0003F0538F441919F0122503109E9014883DA
:1003E000EFCFFB01E80FF91F14826C5F7F4FF5011F
:1003F000748363830596CDB7DEB7EAE00C946E1381
:100400008FE691E0089582E891E008958EE392E00E
:10041000089583EA91E00895FC0122818381FB0124
:100420002083818382E090E00895FB01218130E008
:10043000322F22274081242BFC013383228382E048
:1004400090E0089584EC91E0089583ED91E00895A3
:100450000F931F93CF93DF938C01EC012696CE016F
:100460000E941502D8011A96ED91FC911B97CE01BE
:100470000995DF91CF911F910F910895FC0184851B
:100480009585089584EC91E0089583ED91E00895B9
:10049000FC01EE54FD4F80810895A0E0B0E0E3E55B
:1004A000F2E00C945013EC018B018A81FB018083F4
:1004B0008B8181838C8182838D818383DB0117967D
:1004C00040E050E0BA01E4E0F0E0CA80DB80EC807C
:1004D000FD80CF0104964C155D056E057F05C0F4C7
:1004E0002A853B85E20FF31F3497D080F18032815B
:1004F0002381FD013397D0823196F082319630838B
:100500002C93FC014F5F5F4F6F4F7F4F1496DDCFF1
:10051000E00FF11F2C8520832D8521832E852283DA
:100520002F85238320E030E040E050E0BA01CC8406
:10053000DD84EE84FF84F801E80FF91F04964C1562
:100540005D056E057F05C0F4AC89BD89A20FB31FA0
:10055000DC901196EC9011971296FC9012971396DE
:10056000AC91D082E182F282A3834F5F5F4F6F4FE5
:100570007F4F2C5F3F4FDBCF2E8920832F89218334
:10058000288D2283298D2383812C912C54014E891F
:100590005F89688D798D84169506A606B706A8F53D
:1005A0009401220F331FEC8DFD8DE20FF31FA0810C
:1005B000B181FD0101900020E9F731976F01CA1A5E
:1005C000DB0AF801E80FF91FA60160E070E0408344
:1005D0005183628373837C01F4E0EF0EF11C8C8DF8
:1005E0009D8DFC01E20FF31F60817181A601C8019E
:1005F0008E0D9F1D0E94AA13C6018E0D9F1D2FEF09
:10060000821A920AA20AB20AC2CFCDB7DEB7ECE0D4
:100610000C946C13CF93DF93DC01FB0112968C9149
:100620001297808313968D919C911497EC010990F9
:100630000020E9F72197C81BD90BAE0160E070E0FC
:10064000418352836383748313966D917C911497D5
:10065000AE01CF0105960E94AA13CE010596DF9147
:10066000CF910895A0E0B0E0E8E3F3E00C945413D8
:100670007C01EB01FC018281888383818983A481D1
:10068000B581FD0101900020E9F731976F01CA1A89
:10069000DB0AC601A0E0B0E08A839B83AC83BD8304
:1006A000F70164817581A601CE0106960E94AA1306
:1006B000F701A681B781FD0101900020E9F731978C
:1006C0008F010A1B1B0BFE01EC0DFD1DC801A0E0F4
:1006D000B0E086839783A087B187FAE0CF0ED11C64
:1006E000F70166817781A801CE018C0D9D1D0E94C6
:1006F000AA130C0D1D1DF701A085B185FD01019008
:100700000020E9F731976F01CA1ADB0AFE01E00FFA
:10071000F11FC601A0E0B0E080839183A283B38380
:100720000C5F1F4FF70160857185A601CE01800F18
:10073000911F0E94AA130C0D1D1DF70142852385F0
:1007400094858585C00FD11F488329839A838B8325
:10075000C8010496CDB7DEB7E8E00C947013A0E0B2
:10076000B0E0E5EBF3E00C944C13EC015B01DB0132
:100770008C9111969C9111971296CC901297D12C36
:10078000E12CF12C7601DD24CC24D92AC82A139639
:100790008C91F82A8A819B81AC81BD818C159D0545
:1007A000AE05BF0558F4B601660F771F660F771FB9
:1007B0008A859B850E94660F9B878A87CA82DB8217
:1007C000EC82FD829501295F3F4FC12CD12C76012F
:1007D000E4E0F0E0AE014A5F5F4F8A819B81AC812B
:1007E000BD818F010C5F1F4FC816D906EA06FB06B4
:1007F00080F5F901808190E0A0E0B0E0B82FAA2751
:100800009927882733976081862B31966081962BB4
:1008100031966081A62B8E839F83A887B987F801C4
:10082000C8010897AA85BB858A0F9B1FDA014D90E6
:100830005D906D907C90DC014D925D926D927C920A
:100840001397BFEFCB1ADB0AEB0AFB0A2C5F3F4F73
:10085000C4CFEA0DFB1D80819181C280D12CE12C97
:10086000F12C7601DD24CC24D92AC82A8381F82AE8
:100870008C859D85AE85BF858C159D05AE05BF0514
:1008800058F4B601660F771F660F771F8C899D8914
:100890000E94660F9D8B8C8BCC86DD86EE86FF8654
:1008A00020E030E0C12CD12C7601AE01405F5F4FDB
:1008B0008C859D85AE85BF85F501E00FF11F0C5F2E
:1008C0001F4FC816D906EA06FB0640F561818281F2
:1008D00090E0A0E0B0E0DC0199278827962B6081AA
:1008E000862B6381B62B888B998BAA8BBB8BEC896B
:1008F000FD89BF01620F731FFA0180819181A2817E
:10090000B381FB0180839183A283B383FFEFCF1A6E
:10091000DF0AEF0AFF0A2C5F3F4FCACF8081918127
:10092000C280D12CE12CF12C7601DD24CC24D92AF3
:10093000C82A8381F82A8E899F89A88DB98D8C1544
:100940009D05AE05BF0548F4B601660F771F8C8D77
:100950009D8D0E94660F9D8F8C8FCE8ADF8AE88ED8
:10096000F98E40E050E0BA014E018AE1880E911CF8
:100970008E899F89A88DB98D481759076A077B070B
:1009800008F045C0D501A00FB11FCD90DD90ED90CE
:10099000FC90C8010496D501A80FB91F2C01092E9F
:1009A000000C660877084C0C5D1C6E1C7F1C9D01BA
:1009B0002A193B09890120E030E0041515052605B8
:1009C000370538F41D919D0122503109F90110833A
:1009D000EECF8C010C0D1D1DD501A00FB11F11977D
:1009E0001C9201978A0D9B1D9B8F8A8FCA01880FCD
:1009F000991FAC8DBD8DA80FB91FF4018081918125
:100A00008D939C934F5F5F4F6F4F7F4FB1CFC80166
:100A1000CDB7DEB7E0E10C946813A5E0B0E0E3E108
:100A2000F5E00C9450138C016B0164E6C616D104FA
:100A30003CF0FC01EE54FD4F8081882309F478C01E
:100A4000DA01ED91FC910190F081E02DB8016D5C2F
:100A50007E4FCA0109959C017801B4EDEB1ABEEFF7
:100A6000FB0A4FEFF70140834EEF319640833196FA
:100A70008083319690833196890F8095808331965B
:100A8000C082D801AE5CBE4FDC9265E070E040E011
:100A900050E0C90107966817790730F4A1914A0F11
:100AA000511D6F5F7F4FF7CF6901F8E0CF0ED11C6A
:100AB000800F911FFC01E45DFE4F4095408349E1AA
:100AC000C41641E0D406C1F056014701D801129680
:100AD0008D919C911397F40161914F01DC01ED918F
:100AE000FC910190F081E02D0995C4018E199F09B8
:100AF0008C159D055CF31EC086E792E09A8389837E
:100B000083E08B8384EF91E09D838C83D801ED910A
:100B1000FC910190F081E02DAE014F5F5F4F67E0E7
:100B200070E0C8010995AA24AA94BB24BA9402C013
:100B3000A12CB12CC5012596ECE00C946C1361E05E
:100B400088E00E949E126DE270E085EB95E00E94C5
:100B5000CD0C62E370E080E090E00E94D8116CE878
:100B600070E08CEA95E00E94CD0C68EC70E080E0CB
:100B700090E00E94D8116AE570E085EB95E00E9454
:100B8000CD0C64EF71E080E090E00E94D8116AE53E
:100B900070E08CEA95E00E94CD0C64EF71E080E09B
:100BA00090E00E94D81160E088E00E949E120895B3
:100BB00061E088E00E949E1267E870E085EB95E0B6
:100BC0000E94CD0C62E370E080E090E00E94D811BA
:100BD00062E870E08CEA95E00E94CD0C68EC70E071
:100BE00080E090E00E94D8116AE570E085EB95E026
:100BF0000E94CD0C64EF71E080E090E00E94D8117B
:100C00006AE570E08CEA95E00E94CD0C64EF71E03B
:100C100080E090E00E94D81160E088E00E949E127F
:100C2000089561E088E00E949E1260E570E08FEA1E
:100C300095E00E94CD0C64E670E080E090E00E94B8
:100C4000D81162E870E08CEA95E00E94CD0C64EF68
:100C500071E080E090E00E94D8116AE570E08CEAD3
:100C600095E00E94CD0C62E370E080E090E00E948D
:100C7000D81164E670E08FEA95E00E94CD0C60E048
:100C800088E00E949E120895FC01828193811816CB
:100C9000190684F48230910541F08330910541F0CA
:100CA000019741F40E949F0508950E94D805089578
:100CB0000E941106089563E070E085EB95E00E94C4
:100CC000910C69E070E082EB95E00E94910C65E088
:100CD00070E08FEA95E00E94910C66E070E08CEA8B
:100CE00095E00E94910C6AE570E085EB95E00E942A
:100CF000CD0C64E670E080E090E00E94D81166E9D7
:100D000070E082EB95E00E94CD0C64E670E080E03C
:100D100090E00E94D81164E670E08FEA95E00E94AE
:100D2000CD0C64E670E080E090E00E94D81164E6AB
:100D300070E08CEA95E00E94CD0C64E670E080E003
:100D400090E00E94D8114091D2025091D30260915C
:100D5000D4027091D5028091D0029091D1020E946C
:100D6000860E1092770510927605109279051092F2
:100D7000780510927D0510927C0510927B051092EB
:100D80007A05E4E4F5E080E090E021913191232BB5
:100D900081F4FC01EE0FFF1FEC5BFA4F2CEB32E00D
:100DA000318320838C599F4F9093BF028093BE0262
:100DB000089501968931910541F70895AAE0B0E0C0
:100DC000E4EEF6E00C9458138C018EE592E09A83E1
:100DD00089831B821C821D821E821F8218861986AF
:100DE0001A86D801ED91FC910190F081E02DAE01C1
:100DF0004F5F5F4F6AE070E0C80109950E94A7113C
:100E0000F80160877187828793872A96E4E00C94C3
:100E100074134F925F926F927F92AF92BF92CF9274
:100E2000DF92EF92FF920F931F93CF93DF93CDB793
:100E3000DEB72E970FB6F894DEBF0FBECDBF8C0184
:100E40008AE692E09A8389831C821B828CE292E07C
:100E50009E838D8398878F839A8789871B861C86BC
:100E60001D861E8668018CEBC81A8DEFD80A7801A2
:100E7000AAE8EA1AADEFFA0A98E1492E55245394EC
:100E8000612C712CD601ED91FC913097B9F18481E0
:100E900095819C838B83808191819E838D838281C8
:100EA0009381DC01ED91FC910480F581E02D0995A1
:100EB00098878F83D601ED91FC9182819381DC012B
:100EC000ED91FC910680F781E02D09959A8789873D
:100ED0004B865C866D867E86F80180819181F60165
:100EE000A081B18118966D917C911997DC01ED91EB
:100EF000FC91AE014F5F5F4FC8010995B2E0CB0E88
:100F0000D11CCE14DF0409F0BDCF6801E8E5CE1A8C
:100F1000EDEFDE0A88E1482E55245394612C712CA4
:100F2000F701A081B1811097E1F112968D919C910A
:100F300013979C838B8314968D919C9115979E8318
:100F40008D83ED91FC9111970480F581E02DCD0109
:100F5000099598878F83D7018D919C91DC01ED9144
:100F6000FC910680F781E02D09959A8789874B8649
:100F70005C866D867E86D801ED91FC91A080B18063
:100F8000F70180819181DC01ED91FC910280F38178
:100F9000E02D0995AE014F5F5F4FBC01C801F5011F
:100FA0000995F2E0EF0EF11CEC14FD0409F0B8CF46
:100FB000F801EE54FD4F81E080832E960FB6F89431
:100FC000DEBF0FBECDBFDF91CF911F910F91FF907C
:100FD000EF90DF90CF90BF90AF907F906F905F9039
:100FE0004F900895AAE0B0E0E8EFF7E00C945013BA
:100FF0008C015B018EE592E09A8389831B821C82BF
:101000001D821E821F82188619861A860E94A711C9
:10101000F801C084D184E284F3849B01AC012C19D3
:101020003D094E095F0969017A01B501CE010196BA
:101030000E94AC0088EE882E83E0982EA12CB12C63
:10104000C701B601A50194010E94FE12CB80DC808D
:10105000ED80FE80C20ED31EE41EF51ECB82DC8224
:10106000ED82FE829B01AC0160E472E48FE090E0CF
:101070000E94CE12CF80D884E984FA84DC01CB01AF
:101080008C0D9D1DAE1DBF1D8F839887A987BA87C4
:101090000E94A711CB80DC80ED80FE8031E0C31A76
:1010A000D108E108F108A50194010E94FE12C21ABC
:1010B000D30AE40AF50AF801C486D586E686F786DF
:1010C000CF80D884E984FA84F6E3DF1AF5E6EF0AE4
:1010D000F4ECFF0A9B01AC0160E472E48FE090E065
:1010E0000E94CE12C61AD70AE80AF90AF801C08A85
:1010F000D18AE28AF38AB801605F7F4FC8010C96FB
:101100000E940E0B0E94A711F801E954FD4F608365
:101110007183828393832A96ECE00C946C13A0E194
:10112000B0E0E5E9F8E00C944A13988B8F870E94B1
:10113000A7114B015C012F85388929543D4F3E830F
:101140002D83F90180819181A281B381A501940150
:10115000281B390B4A0B5B0BDA01C901893F9A4204
:10116000A105B10528F0EF85F889EE54FD4F1082F6
:101170000F85188908551D4FD8018D919C91892B99
:1011800081F0EF85F889E554FD4F80819181A2813E
:10119000B38188159905AA05BB0518F4F8011182D9
:1011A00010826F847888F0E56F1AFDEF7F0A2F8533
:1011B000388924553D4F3A832983CF84D88834E138
:1011C000C30ED11C4F8558894E545D4F58874F83AD
:1011D0002F85388920543D4F3A8729874F85588974
:1011E00041545D4F5C874B87EF84F88856E5E51ADC
:1011F0005DEFF50A2F85388922553D4F3C832B83BF
:101200004F85588945545D4F5E874D8714012501F0
:1012100054E1250E311C411C511CAF85B889129632
:101220008D919C911397DC01ED91FC910680F781E3
:10123000E02D09959C0197FD22C1F30180819181E8
:10124000820F931F91838083D8014D915C91473029
:101250005105D1F4EB81FC8180819181AC014F5F1C
:101260005F4F51834083EF85F889E80FF91F248B86
:10127000D7018D919C91119701978D939C93892B08
:1012800061F688E090E06BC04115510521F52F3FD4
:10129000310561F481E090E0D8018D939C93ED8558
:1012A000FE852082318242825382B7CF0E94A711ED
:1012B000DC01CB0188199909AA09BB090697A10588
:1012C000B10508F4AACFEF85F889EE54FD4F1082DE
:1012D0008EEF9FEFFDC04130510599F42E3F31054F
:1012E00019F482E090E02BC0F80111821082AF81E6
:1012F000B8858C91811191CF8F8598890E94DE06E7
:101300008CCF4230510569F4F70131832083AB81E2
:10131000BC811D921C9283E090E0F8019183808350
:1013200032C04330510579F4322F2227F7018081F2
:101330009181280F391F3183208384E090E0D80108
:101340008D939C936ACF4430510589F460E071E03D
:101350000E94EA128F3F910531F485E090E0F80198
:10136000918380835ACFD8011D921C9256CF45306D
:10137000510569F4E981FA8131832083E6E0F0E0E8
:10138000D801ED93FC93D3012D933C9346CF463087
:10139000510599F4322F2227E981FA8180819181C8
:1013A000280F391F31832083E7E0F0E0D801ED9367
:1013B000FC93D7018D919C9162CF4830510509F083
:1013C0002CCFF8011182108260E071E00E94EA12D5
:1013D0008F3F910509F021CFA981BA818D919C9110
:1013E0000097C9F48F8598890E94DE068F859889B9
:1013F0000E940907EF85F889ED54FD4F80829182A4
:10140000A282B382ED81FE8180829182A282B38228
:101410008FEF9FEF5DC08A30910531F4B6018F8563
:1014200098890E94F207F9CE8630910551F4B601F1
:1014300089859A850E94AF0381E0AB85BC858C933A
:10144000ECCE8B30910521F4EF81F8851082E5CE4A
:10145000FC01E952FF4FEE0FFF1F2F853889E20F85
:10146000F31F80819181009709F4D7CEDC01ED91C3
:10147000FC910190F081E02DB6010995CECEEF856B
:10148000F889EE54FD4F8081882301F10F8518897A
:101490000D541D4FF80180819181A281B381A50176
:1014A0009401281B390B4A0B5B0BDA01C901853CFF
:1014B0009940A105B10550F08F8598890E94DE06FC
:1014C000D8018D929D92AD92BC92139780E090E0EE
:1014D0006096E2E10C9466138EEC92E00E948F0815
:1014E000089585EB95E00E94F70B82EB95E00E9452
:1014F000F70B8FEA95E00E94F70B8CEA95E00E94CB
:10150000F70B8AE992E09093CF028093CE028EEDA2
:1015100095E09093D1028093D00280E091EEA0E01C
:10152000B0E08093D2029093D302A093D402B09300
:10153000D5021092800582E892E090938F05809307
:101540008E051092900510929105109292051092BE
:101550009305109299051092980510929A05109291
:101560009B0510929C0510929D051092A305109268
:10157000A2051092A4051092A5051092A60510923E
:10158000A7051092AB051092AA05E2E1F5E01192D1
:10159000119285E0E434F807D1F7E4E4F5E0119224
:1015A000119285E0E637F807D1F7E2EEF2E011920A
:1015B00083E0EA3FF807D9F7EAEFF3E0119285E01C
:1015C000E231F807D9F78EE892E09093CB0280934E
:1015D000CA021092CD021092CC0224EA32E030937B
:1015E000BD022093BC029093C3028093C20210926A
:1015F000C5021092C40284E496E09093C7028093DF
:10160000C60281E090E09093C9028093C8028DE207
:1016100092E09093C1028093C0020895A0E0B0E0F0
:10162000E4E1FBE00C9454138C01EB0168817981B7
:101630008A819B8120E03AEC4AE95BE30E94FE123A
:10164000F801C080D180E280F380C20ED31EE41E78
:10165000F51EC082D182E282F382688379838A8315
:101660009B83CDB7DEB7E8E00C9470131F920F9206
:101670000FB60F9211242F933F934F935F936F9365
:101680007F938F939F93AF93BF93EF93FF9380913B
:10169000B90587FF05C010928500109284001BC019
:1016A0002091B905022E000C330B8091B80590E013
:1016B0002817390784F48091B905082E000C990B7E
:1016C000FC01EE0FFF1F8E0F9F1FFC01E654FA4F27
:1016D000808186FD15C08091B9058F5F8093B90523
:1016E0002091B905022E000C330B8091B80590E0D3
:1016F00028173907C4F48091B9058C3064F113C000
:101700008091B905082E000C990BFC01EE0FFF1F0C
:101710008E0F9F1FFC01E654FA4F808160E08F73AB
:101720000E949E12D8CF80918400909185000496EB
:1017300080349C4918F480E49CE905C080918400C1
:1017400090918500049690938900809388008FEF94
:101750008093B9053BC02091840030918500809131
:10176000B905082E000C990BFC01EE0FFF1F8E0F20
:101770009F1FFC01E654FA4F81819281820F931FD3
:1017800090938900809388008091B905082E000C01
:10179000990BFC01EE0FFF1F8E0F9F1FFC01E654FB
:1017A000FA4F808186FF12C08091B905082E000C87
:1017B000990BFC01EE0FFF1F8E0F9F1FFC01E654DB
:1017C000FA4F808161E08F730E949E12FF91EF912A
:1017D000BF91AF919F918F917F916F915F914F9149
:1017E0003F912F910F900FBE0F901F901895FC0105
:1017F0009091B8059C30A0F481E0890F8093B805E2
:101800009083892F90E0FC01EE0FFF1F8E0F9F1F2A
:10181000FC01E654FA4F88EB9BE0928381830895A4
:101820008FEF80830895A0E0B0E0E9E1FCE00C9444
:101830005513EC01D62E7A01890188818C3008F08D
:101840006AC061E08D2D0E9462128881E82FF0E06D
:101850009F01220F331FE20FF31FE654FA4F9D2D15
:101860009F732081207CD22ED92AD08260E272E040
:10187000AB014E195F0957FF02C04D5F5F4F559591
:10188000479555954795498340E659E09A01201BB5
:10189000310B37FF02C02D5F3F4F359527953595AA
:1018A00027952A836CE00E94DE129CE0899FB0019C
:1018B000112440E050E09A01260F371FF901EE0F86
:1018C000FF1F2E0F3F1FF901E654FA4F908196FD3E
:1018D00016C04F5F5F4F4C30510569F781110FC043
:1018E0001092800082E08093810010928500109217
:1018F0008400B19A80916F00826080936F00E881CC
:10190000F0E0CF01880F991FE80FF91FE654FA4F56
:101910008081806480838881CDB7DEB7E7E00C9456
:10192000711320E639E040E252E00E94130C089562
:10193000FC0190819C3080F5818128E830E0281BF3
:10194000310987FD3395220F331F220F331F621792
:1019500073077CF0828128E532E0281B310987FD7E
:101960003395220F331F220F331F621773070CF4B6
:101970009B014FB7F894892F90E0FC01EE0FFF1FF9
:101980008E0F9F1FFC01E654FA4F22503109220F9F
:10199000331F328321834FBF0895A0E0B0E0E3ED11
:1019A000FCE00C945213EC01603282E078070CF0FA
:1019B0003FC077FD06C0653B71052CF064EB70E01D
:1019C00002C060E070E0898128E830E05901A81A7F
:1019D000B10887FDB394AA0CBB1CAA0CBB1C0B2C32
:1019E000000CCC08DD08072E000C880B990B2A810F
:1019F00008E512E0021B110927FD1395000F111FC6
:101A0000000F111F012E000C220B330B3F932F935D
:101A10001F930F9314EBE12EF12C00E010E020E077
:101A200030E0A9010E942D0D0F900F900F900F90A4
:101A3000CE010E94980CCDB7DEB7EAE00C946E138D
:101A40000E94FE110E945B06C2E4DEE00E946C0A66
:101A50002097E1F30E94420EF9CF4F925F926F926E
:101A60007F92AF92BF92CF92DF92EF92FF920F934D
:101A70001F93CF93DF93CDB7DEB729013A019B01C6
:101A8000AC01241935094609570989899A89AB8916
:101A9000BC89BC01CD016A197B098C099D090E9492
:101AA000CE12A801970124193509460957090E9449
:101AB0002013CA01B9016A0D7B1D8C1D9D1DDF918C
:101AC000CF911F910F91FF90EF90DF90CF90BF903B
:101AD000AF907F906F905F904F900895FC012485A8
:101AE0003585F901E05CFF4F80819181329620813C
:101AF0003181821B930B8F7399270895DC011C960B
:101B0000ED91FC911D97DF01A05CBF4F2D913C91A1
:101B1000119712968D919C9111972817390739F0DA
:101B20008D919C91E80FF91F808190E008958FEFCF
:101B30009FEF0895FC01A485B585FD01E05CFF4F92
:101B4000208131813296808191812817390779F07F
:101B500080819181A80FB91F8C91208131812F5FE5
:101B60003F4F2F7333273183208390E008958FEF09
:101B70009FEF0895FC0181A1882329F0A489B589EC
:101B80008C9186FFFBCF11A208950F931F93CF93E3
:101B9000DF93FC01A685B7858D01005C1F4FE8012E
:101BA0008881998101968F739927AD014E5B5F4FB4
:101BB000EA012881398182179307D1F3E80128814E
:101BC0003981A20FB31F6C93A685B785A05CBF4F68
:101BD00011969C938E93A689B7892C9181E090E011
:101BE000078C02C0880F991F0A94E2F7822B8C930E
:101BF00081E081A30488F589E02D80818064808361
:101C000081E090E0DF91CF911F910F9108950895A9
:101C10001F920F920FB60F9211242F934F935F9341
:101C20008F939F93EF93FF938091C00082FD1CC020
:101C30002091C600809184069091850601968F734D
:101C4000992740918606509187068417950771F071
:101C5000E0918406F0918506EC5BF94F2083909328
:101C600085068093840602C08091C600FF91EF91A3
:101C70009F918F915F914F912F910F900FBE0F9079
:101C80001F9018958EED95E00E946E0D892B11F036
:101C90000E94070E08951F920F920FB60F92112403
:101CA0002F933F938F939F93EF93FF932091400641
:101CB00030914106809142069091430628173907DA
:101CC00031F48091C1008F7D8093C10014C0E091F8
:101CD0004206F0914306E050FA4F2081809142067F
:101CE0009091430601968F739927909343068093B2
:101CF00042062093C600FF91EF919F918F913F91F3
:101D00002F910F900FBE0F901F901895A0E0B0E09C
:101D1000ECE8FEE00C945413EC016A017B014115E0
:101D2000514E6105710511F1EC89FD8981E090E06A
:101D300008A002C0880F991F0A94E2F7808360E030
:101D400079E08DE390E0A70196010E94FE128901DF
:101D50009A010150110921093109369527951795E6
:101D600007959801011580E11807A8F0EC89FD8915
:101D7000108260E874E88EE190E0A70196010E946D
:101D8000FE12DA01C9010197A109B109B695A7951B
:101D9000979587959C01E889F9893083EA89FB89C1
:101DA000208319A2EE89FF89408181E090E09C01A7
:101DB0000C8C02C0220F331F0A94E2F7242B2083DD
:101DC000EE89FF8940819C010D8C02C0220F331FD8
:101DD0000A94E2F7242B2083EE89FF8940819C013D
:101DE0000E8C02C0220F331F0A94E2F7242B2083AB
:101DF000EE89FF8920810F8C02C0880F991F0A94F9
:101E0000E2F7809582238083CDB7DEB7E8E00C94BB
:101E10007013EEEDF5E01382128288EE93E0A0E0FD
:101E2000B0E084839583A683B78380EB92E09183AF
:101E3000808384E496E09587848780E096E09787A6
:101E4000868785EC90E0918B808B84EC90E0938B7F
:101E5000828B80EC90E0958B848B81EC90E0978B6B
:101E6000868B82EC90E0918F808F86EC90E0938F50
:101E7000828F84E0848F83E0858F87E0868F85E082
:101E8000878F81E080A30895A0E0B0E0EAE4FFE05E
:101E90000C9454136C01EB017B01E40EF51E00E081
:101EA00010E0CE15DF0561F06991D601ED91FC914E
:101EB0000190F081E02DC6010995080F191FF1CF9F
:101EC000C801CDB7DEB7E8E00C947013A0E0B0E035
:101ED000ECE6FFE00C944E13EC01009721F4CB01EB
:101EE0000E943010B8C0FC01E60FF71F9C01225081
:101EF0003109E217F30708F4ACC0D9010D911C9128
:101F0000119706171707B0F00530110508F49FC0A8
:101F1000C80104978617970708F499C00250110961
:101F2000061B170B019311936D937C93CF010E94B5
:101F3000C5108DC05B01A01AB10A4C01800E911E24
:101F4000A0919306B091940640E050E0E12CF12C72
:101F5000109709F44AC0A815B905D1F56D907C9089
:101F60001197630182E0C80ED11CCA14DB0480F112
:101F7000A3014A195B096A0182E0C80ED11C1296BE
:101F8000BC9012971396AC91B5E0CB16D10440F0FB
:101F9000B282A38351834083D9016D937C930AC09D
:101FA0000E5F1F4FC301800F911FF9019183808342
:101FB000EB2DFA2FE114F10431F0D7011396FC93C5
:101FC000EE93129744C0F0939406E09393063FC0BB
:101FD0008D919C9111974817590708F4AC017D0128
:101FE00012960D90BC91A02DB3CF80919106909147
:101FF000920688159905E1F446175707C8F48091B1
:10200000000190910101009741F48DB79EB7409176
:10201000040150910501841B950BE817F907C8F4DA
:10202000F0939206E0939106F901718360830FC0EB
:10203000CB010E9430107C01009759F0A801BE012D
:102040000E94AA13CE010E94C510C70104C0CE0190
:1020500002C080E090E0CDB7DEB7EEE00C946A13EA
:10206000CF93DF938230910510F482E090E0E0910D
:102070009306F091940620E030E0C0E0D0E0309785
:1020800011F14081518148175907C0F0481759078D
:1020900061F482819381209719F09B838A832BC0FE
:1020A000909394068093930626C02115310519F06C
:1020B0004217530718F49A01BE01DF01EF010280B5
:1020C000F381E02DDCCF2115310509F1281B390BF7
:1020D0002430310590F412968D919C9113976115DF
:1020E000710521F0FB019383828304C090939406D1
:1020F00080939306FD01329644C0FD01E20FF31F69
:1021000081939193225031092D933C933AC02091B1
:10211000910630919206232B41F4209102013091D7
:102120000301309392062093910620910001309193
:1021300001012115310541F42DB73EB7409104014D
:1021400050910501241B350BE0919106F091920608
:10215000E217F307A0F42E1B3F0B2817390778F07E
:10216000AC014E5F5F4F2417350748F04E0F5F1FDD
:1021700050939206409391068193919302C0E0E0C0
:10218000F0E0CF01DF91CF9108950F931F93CF938C
:10219000DF93009709F48CC0FC01329713821282FE
:1021A00000919306109194060115110581F4208188
:1021B0003181820F931F209191063091920628174A
:1021C000390779F5F0939206E093910671C0D80132
:1021D00040E050E0AE17BF0750F412962D913C91AD
:1021E0001397AD012115310509F1D901F3CF9D01F7
:1021F000DA013383228360817181860F971F8217F2
:10220000930769F4EC0128813981260F371F2E5F6F
:102210003F4F318320838A819B8193838283452B27
:1022200029F4F0939406E093930642C01396FC932E
:10223000EE931297ED01499159919E01240F351F9C
:10224000E217F30771F480819181840F951F029644
:1022500011969C938E938281938113969C938E9377
:102260001297E0E0F0E0D80112968D919C911397BF
:10227000009719F0F8018C01F6CF8D919C9198018F
:102280002E5F3F4F820F931F20919106309192064F
:102290002817390769F4309729F4109294061092A0
:1022A000930602C013821282109392060093910645
:1022B000DF91CF911F910F9108951F920F920FB64A
:1022C0000F9211242F933F938F939F93AF93BF93BC
:1022D0008091890690918A06A0918B06B0918C0618
:1022E0003091880623E0230F2D3720F40196A11D9D
:1022F000B11D05C026E8230F0296A11DB11D209334
:1023000088068093890690938A06A0938B06B093E3
:102310008C0680918D0690918E06A0918F06B091CB
:1023200090060196A11DB11D80938D0690938E0697
:10233000A0938F06B0939006BF91AF919F918F911C
:102340003F912F910F900FBE0F901F9018952FB7B0
:10235000F8946091890670918A0680918B0690911D
:102360008C062FBF08953FB7F89480918D06909109
:102370008E06A0918F06B091900626B5A89B05C049
:102380002F3F19F00196A11DB11D3FBFBA2FA92FF4
:10239000982F8827820F911DA11DB11DBC01CD0171
:1023A00042E0660F771F881F991F4A95D1F708955D
:1023B000CF92DF92EF92FF92CF93DF936B017C017C
:1023C0000E94B311EB01C114D104E104F10479F0CE
:1023D0000E94B3116C1B7D0B683E7340A0F381E03B
:1023E000C81AD108E108F108C851DC4FECCFDF91E1
:1023F000CF91FF90EF90DF90CF900895789484B5BF
:10240000826084BD84B5816084BD85B5826085BDF0
:1024100085B5816085BDEEE6F0E0808181608083D6
:10242000E1E8F0E0108280818260808380818160B9
:102430008083E0E8F0E0808181608083E1EBF0E080
:10244000808184608083E0EBF0E080818160808324
:10245000EAE7F0E08081846080838081826080830D
:102460008081816080838081806880831092C10038
:102470000895833081F028F4813099F08230A1F002
:1024800008958630A9F08730B9F08430D1F4809176
:1024900080008F7D03C0809180008F7780938000C3
:1024A000089584B58F7702C084B58F7D84BD08956B
:1024B0008091B0008F7703C08091B0008F7D8093B2
:1024C000B0000895CF93DF9390E0FC01E458FF4FF4
:1024D0002491FC01E057FF4F8491882361F190E043
:1024E000880F991FFC01E255FF4FC591D491FC0163
:1024F000EC55FF4FA591B491611109C09FB7F894B5
:102500008881209582238883EC912E230BC0623032
:1025100061F49FB7F8943881822F80958323888354
:10252000EC912E2B2C939FBF06C08FB7F894E881B7
:102530002E2B28838FBFDF91CF9108951F93CF93C8
:10254000DF93282F30E0F901E859FF4F8491F9011A
:10255000E458FF4FD491F901E057FF4FC491CC23C9
:10256000C9F0162F81110E943912EC2FF0E0EE0F06
:10257000FF1FEC55FF4FA591B4918FB7F89411113F
:1025800005C09C91ED2FE095E92302C0EC91ED2B65
:10259000EC938FBFDF91CF911F910895DB018F9353
:1025A0009F930E943F13BF91AF91A29F800D911DF9
:1025B000A39F900DB29F900D11240895991B79E06F
:1025C00004C0991F961708F0961B881F7A95C9F7C3
:1025D0008095089597FB072E16F4009407D077FD99
:1025E00009D00E94811307FC05D03EF49095819597
:1025F0009F4F0895709561957F4F0895A1E21A2E1F
:10260000AA1BBB1BFD010DC0AA1FBB1FEE1FFF1F96
:10261000A217B307E407F50720F0A21BB30BE40BE6
:10262000F50B661F771F881F991F1A9469F760952D
:102630007095809590959B01AC01BD01CF010895E7
:10264000052E97FB1EF400940E94371357FD07D008
:102650000E94FE1207FC03D04EF40C9437135095E1
:102660004095309521953F4F4F4F5F4F089590957E
:102670008095709561957F4F8F4F9F4F08950E9471
:102680009B13A59F900DB49F900DA49F800D911D4D
:10269000112408952F923F924F925F926F927F92F2
:1026A0008F929F92AF92BF92CF92DF92EF92FF9262
:1026B0000F931F93CF93DF93CDB7DEB7CA1BDB0B0E
:1026C0000FB6F894DEBF0FBECDBF09942A883988B3
:1026D00048885F846E847D848C849B84AA84B984BA
:1026E000C884DF80EE80FD800C811B81AA81B981C6
:1026F000CE0FD11D0FB6F894DEBF0FBECDBFED01DA
:102700000895AA1BBB1B51E107C0AA1FBB1FA61738
:10271000B70710F0A61BB70B881F991F5A95A9F78A
:1027200080959095BC01CD010895EE0FFF1F059097
:10273000F491E02D0994A29FB001B39FC001A39F23
:10274000700D811D1124911DB29F700D811D1124EA
:10275000911D0895FB01DC0102C001900D924150D2
:0A2760005040D8F70895F894FFCF19
:10276A000000950680007374645F6D7367732F545D
:10277A00696D6500636437313636633734633535DE
:10278A00326333313166626363326665356137625B
:10279A006332383900726F7373657269616C5F6D89
:1027AA007367732F546F706963496E666F00306187
:1027BA00643531663838666334343839326638639A
:1027CA0031303638343037373634363030350072B7
:1027DA006F7373657269616C5F6D7367732F4C6F8A
:1027EA0067003131616264373331633235393333EB
:1027FA0032363163643631383362643132643632A8
:10280A0039350039663065393862646136353938A8
:10281A00313938366464663533616661376134301C
:10282A00653439007374645F6D7367732F496E740E
:10283A0031360038353234353836653334666264B9
:10284A0037636231633038633566356631636130C8
:10285A00653537004D6573736167652066726F6D04
:10286A00206465766963652064726F707065643A86
:10287A00206D657373616765206C6172676572208C
:10288A007468616E206275666665722E0061726494
:10289A0075696E6F5F636F6D6D616E647300726FE1
:1028AA007373657269616C5F6D7367732F526571BB
:1028BA0075657374506172616D00000000008800D4
:1028CA00AC00F200F500000000003203F800C2017B
:1028DA00C501000000000A03C8010002030200004B
:1028EA0000004D02AF0306020902000000000C02BC
:1028FA00150222022502000000000D058F08480279
:10290A000000000028023E024202450200000000C8
:0C291A00C50D440F6E0D9A0D7E0DBA0D18
:00000001FF
